{
  "contractName": "EasyProp",
  "abi": [
    {
      "inputs": [],
      "stateMutability": "nonpayable",
      "type": "constructor"
    },
    {
      "anonymous": false,
      "inputs": [
        {
          "indexed": false,
          "internalType": "uint256",
          "name": "id",
          "type": "uint256"
        },
        {
          "indexed": false,
          "internalType": "string",
          "name": "propType",
          "type": "string"
        },
        {
          "indexed": false,
          "internalType": "string",
          "name": "title",
          "type": "string"
        },
        {
          "indexed": false,
          "internalType": "string",
          "name": "description",
          "type": "string"
        },
        {
          "indexed": false,
          "internalType": "string[5]",
          "name": "locations",
          "type": "string[5]"
        },
        {
          "indexed": false,
          "internalType": "uint256[6]",
          "name": "rooms",
          "type": "uint256[6]"
        },
        {
          "indexed": false,
          "internalType": "string[4]",
          "name": "photos",
          "type": "string[4]"
        },
        {
          "indexed": false,
          "internalType": "string[2]",
          "name": "sellerDetails",
          "type": "string[2]"
        },
        {
          "indexed": false,
          "internalType": "address payable",
          "name": "sellerAddress",
          "type": "address"
        },
        {
          "indexed": false,
          "internalType": "string[5]",
          "name": "priceandTime",
          "type": "string[5]"
        },
        {
          "indexed": false,
          "internalType": "string",
          "name": "status",
          "type": "string"
        },
        {
          "indexed": false,
          "internalType": "address",
          "name": "signedBy",
          "type": "address"
        },
        {
          "indexed": false,
          "internalType": "bool",
          "name": "purchased",
          "type": "bool"
        }
      ],
      "name": "PropertyAdded",
      "type": "event"
    },
    {
      "anonymous": false,
      "inputs": [
        {
          "indexed": false,
          "internalType": "uint256",
          "name": "id",
          "type": "uint256"
        },
        {
          "indexed": false,
          "internalType": "string",
          "name": "propType",
          "type": "string"
        },
        {
          "indexed": false,
          "internalType": "string",
          "name": "title",
          "type": "string"
        },
        {
          "indexed": false,
          "internalType": "string",
          "name": "description",
          "type": "string"
        },
        {
          "indexed": false,
          "internalType": "string[5]",
          "name": "locations",
          "type": "string[5]"
        },
        {
          "indexed": false,
          "internalType": "uint256[6]",
          "name": "rooms",
          "type": "uint256[6]"
        },
        {
          "indexed": false,
          "internalType": "string[4]",
          "name": "photos",
          "type": "string[4]"
        },
        {
          "indexed": false,
          "internalType": "string[2]",
          "name": "sellerDetails",
          "type": "string[2]"
        },
        {
          "indexed": false,
          "internalType": "address payable",
          "name": "sellerAddress",
          "type": "address"
        },
        {
          "indexed": false,
          "internalType": "string[5]",
          "name": "priceandTime",
          "type": "string[5]"
        },
        {
          "indexed": false,
          "internalType": "string",
          "name": "status",
          "type": "string"
        },
        {
          "indexed": false,
          "internalType": "address",
          "name": "signedBy",
          "type": "address"
        },
        {
          "indexed": false,
          "internalType": "bool",
          "name": "purchased",
          "type": "bool"
        }
      ],
      "name": "PropertyHeld",
      "type": "event"
    },
    {
      "anonymous": false,
      "inputs": [
        {
          "indexed": false,
          "internalType": "uint256",
          "name": "id",
          "type": "uint256"
        },
        {
          "indexed": false,
          "internalType": "address",
          "name": "accBy",
          "type": "address"
        }
      ],
      "name": "ReqAcc",
      "type": "event"
    },
    {
      "anonymous": false,
      "inputs": [
        {
          "indexed": false,
          "internalType": "uint256",
          "name": "id",
          "type": "uint256"
        },
        {
          "indexed": false,
          "internalType": "address",
          "name": "rejBy",
          "type": "address"
        }
      ],
      "name": "ReqRej",
      "type": "event"
    },
    {
      "anonymous": false,
      "inputs": [
        {
          "indexed": false,
          "internalType": "uint256",
          "name": "id",
          "type": "uint256"
        },
        {
          "indexed": false,
          "internalType": "address",
          "name": "reqBy",
          "type": "address"
        }
      ],
      "name": "ReqSent",
      "type": "event"
    },
    {
      "anonymous": false,
      "inputs": [
        {
          "indexed": false,
          "internalType": "uint256",
          "name": "id",
          "type": "uint256"
        },
        {
          "indexed": false,
          "internalType": "address",
          "name": "signedBy",
          "type": "address"
        }
      ],
      "name": "Signed",
      "type": "event"
    },
    {
      "inputs": [
        {
          "internalType": "uint256",
          "name": "",
          "type": "uint256"
        },
        {
          "internalType": "uint256",
          "name": "",
          "type": "uint256"
        }
      ],
      "name": "owners",
      "outputs": [
        {
          "internalType": "address",
          "name": "",
          "type": "address"
        }
      ],
      "stateMutability": "view",
      "type": "function",
      "constant": true
    },
    {
      "inputs": [],
      "name": "propCount",
      "outputs": [
        {
          "internalType": "uint256",
          "name": "",
          "type": "uint256"
        }
      ],
      "stateMutability": "view",
      "type": "function",
      "constant": true
    },
    {
      "inputs": [
        {
          "internalType": "uint256",
          "name": "",
          "type": "uint256"
        }
      ],
      "name": "properties",
      "outputs": [
        {
          "internalType": "uint256",
          "name": "id",
          "type": "uint256"
        },
        {
          "internalType": "string",
          "name": "propType",
          "type": "string"
        },
        {
          "internalType": "string",
          "name": "title",
          "type": "string"
        },
        {
          "internalType": "string",
          "name": "description",
          "type": "string"
        },
        {
          "internalType": "address payable",
          "name": "sellerAddress",
          "type": "address"
        },
        {
          "internalType": "string",
          "name": "status",
          "type": "string"
        },
        {
          "internalType": "address",
          "name": "signedBy",
          "type": "address"
        },
        {
          "internalType": "bool",
          "name": "purchased",
          "type": "bool"
        }
      ],
      "stateMutability": "view",
      "type": "function",
      "constant": true
    },
    {
      "inputs": [
        {
          "internalType": "address",
          "name": "",
          "type": "address"
        },
        {
          "internalType": "uint256",
          "name": "",
          "type": "uint256"
        }
      ],
      "name": "userProps",
      "outputs": [
        {
          "internalType": "uint256",
          "name": "",
          "type": "uint256"
        }
      ],
      "stateMutability": "view",
      "type": "function",
      "constant": true
    },
    {
      "inputs": [
        {
          "internalType": "string",
          "name": "_propType",
          "type": "string"
        },
        {
          "internalType": "string",
          "name": "_title",
          "type": "string"
        },
        {
          "internalType": "string",
          "name": "_description",
          "type": "string"
        },
        {
          "internalType": "string[5]",
          "name": "_locations",
          "type": "string[5]"
        },
        {
          "internalType": "uint256[6]",
          "name": "_rooms",
          "type": "uint256[6]"
        },
        {
          "internalType": "string[4]",
          "name": "_photos",
          "type": "string[4]"
        },
        {
          "internalType": "string[2]",
          "name": "_sellerDetails",
          "type": "string[2]"
        },
        {
          "internalType": "string[5]",
          "name": "_priceandTime",
          "type": "string[5]"
        }
      ],
      "name": "addProperty",
      "outputs": [],
      "stateMutability": "nonpayable",
      "type": "function"
    },
    {
      "inputs": [
        {
          "internalType": "uint256",
          "name": "_id",
          "type": "uint256"
        },
        {
          "internalType": "string[2]",
          "name": "_sellerDetails",
          "type": "string[2]"
        },
        {
          "internalType": "string[5]",
          "name": "_priceandTime",
          "type": "string[5]"
        }
      ],
      "name": "sellProperty",
      "outputs": [],
      "stateMutability": "nonpayable",
      "type": "function"
    },
    {
      "inputs": [
        {
          "internalType": "uint256",
          "name": "_id",
          "type": "uint256"
        },
        {
          "internalType": "uint256",
          "name": "_index",
          "type": "uint256"
        }
      ],
      "name": "getLocations",
      "outputs": [
        {
          "internalType": "string",
          "name": "",
          "type": "string"
        }
      ],
      "stateMutability": "view",
      "type": "function",
      "constant": true
    },
    {
      "inputs": [
        {
          "internalType": "uint256",
          "name": "_id",
          "type": "uint256"
        },
        {
          "internalType": "uint256",
          "name": "_index",
          "type": "uint256"
        }
      ],
      "name": "getRooms",
      "outputs": [
        {
          "internalType": "uint256",
          "name": "",
          "type": "uint256"
        }
      ],
      "stateMutability": "view",
      "type": "function",
      "constant": true
    },
    {
      "inputs": [
        {
          "internalType": "uint256",
          "name": "_id",
          "type": "uint256"
        },
        {
          "internalType": "uint256",
          "name": "_index",
          "type": "uint256"
        }
      ],
      "name": "getPhotos",
      "outputs": [
        {
          "internalType": "string",
          "name": "",
          "type": "string"
        }
      ],
      "stateMutability": "view",
      "type": "function",
      "constant": true
    },
    {
      "inputs": [
        {
          "internalType": "uint256",
          "name": "_id",
          "type": "uint256"
        },
        {
          "internalType": "uint256",
          "name": "_index",
          "type": "uint256"
        }
      ],
      "name": "getSellerDetails",
      "outputs": [
        {
          "internalType": "string",
          "name": "",
          "type": "string"
        }
      ],
      "stateMutability": "view",
      "type": "function",
      "constant": true
    },
    {
      "inputs": [
        {
          "internalType": "uint256",
          "name": "_id",
          "type": "uint256"
        },
        {
          "internalType": "uint256",
          "name": "_index",
          "type": "uint256"
        }
      ],
      "name": "getPriceAndTime",
      "outputs": [
        {
          "internalType": "string",
          "name": "",
          "type": "string"
        }
      ],
      "stateMutability": "view",
      "type": "function",
      "constant": true
    },
    {
      "inputs": [
        {
          "internalType": "address",
          "name": "user",
          "type": "address"
        }
      ],
      "name": "getUserPropsCount",
      "outputs": [
        {
          "internalType": "uint256",
          "name": "",
          "type": "uint256"
        }
      ],
      "stateMutability": "view",
      "type": "function",
      "constant": true
    },
    {
      "inputs": [
        {
          "internalType": "uint256",
          "name": "_id",
          "type": "uint256"
        }
      ],
      "name": "getOwnersCount",
      "outputs": [
        {
          "internalType": "uint256",
          "name": "",
          "type": "uint256"
        }
      ],
      "stateMutability": "view",
      "type": "function",
      "constant": true
    },
    {
      "inputs": [
        {
          "internalType": "uint256",
          "name": "_id",
          "type": "uint256"
        },
        {
          "internalType": "string",
          "name": "_status",
          "type": "string"
        }
      ],
      "name": "changeStatus",
      "outputs": [],
      "stateMutability": "nonpayable",
      "type": "function"
    },
    {
      "inputs": [
        {
          "internalType": "uint256",
          "name": "_id",
          "type": "uint256"
        },
        {
          "internalType": "string",
          "name": "dateHeld",
          "type": "string"
        }
      ],
      "name": "sendHoldingDeposit",
      "outputs": [],
      "stateMutability": "payable",
      "type": "function",
      "payable": true
    },
    {
      "inputs": [
        {
          "internalType": "uint256",
          "name": "_id",
          "type": "uint256"
        }
      ],
      "name": "sendFullPrice",
      "outputs": [],
      "stateMutability": "payable",
      "type": "function",
      "payable": true
    }
  ],
  "bytecode": "0x608060405234801561001057600080fd5b50600080819055506144e3806100276000396000f3fe6080604052600436106100f35760003560e01c80638f8136e41161008a578063ec17059d11610059578063ec17059d14610386578063ed0bf662146103a2578063f3a1c99d146103df578063f7b10808146103fb576100f3565b80638f8136e4146102925780639ac8811e146102cf578063cdd57f6c1461030c578063ce52e02014610349576100f3565b80634558593e116100c65780634558593e146101b257806347ed72d9146101db5780634bcc80b81461021857806366234f3e14610255576100f3565b80631e5a2175146100f857806333764f531461012157806333bc7bf01461015e57806334df242214610189575b600080fd5b34801561010457600080fd5b5061011f600480360381019061011a919061372c565b61043f565b005b34801561012d57600080fd5b50610148600480360381019061014391906137b7565b610d40565b6040516101559190613838565b60405180910390f35b34801561016a57600080fd5b50610173610d8e565b6040516101809190613862565b60405180910390f35b34801561019557600080fd5b506101b060048036038101906101ab91906139fd565b610d94565b005b3480156101be57600080fd5b506101d960048036038101906101d49190613b7a565b611161565b005b3480156101e757600080fd5b5061020260048036038101906101fd9190613c02565b6114fe565b60405161020f9190613862565b60405180910390f35b34801561022457600080fd5b5061023f600480360381019061023a9190613c2f565b61154a565b60405161024c9190613862565b60405180910390f35b34801561026157600080fd5b5061027c600480360381019061027791906137b7565b61157b565b6040516102899190613cf7565b60405180910390f35b34801561029e57600080fd5b506102b960048036038101906102b491906137b7565b611637565b6040516102c69190613862565b60405180910390f35b3480156102db57600080fd5b506102f660048036038101906102f19190613d19565b61166b565b6040516103039190613862565b60405180910390f35b34801561031857600080fd5b50610333600480360381019061032e91906137b7565b61168b565b6040516103409190613cf7565b60405180910390f35b34801561035557600080fd5b50610370600480360381019061036b91906137b7565b611747565b60405161037d9190613cf7565b60405180910390f35b6103a0600480360381019061039b9190613b7a565b611803565b005b3480156103ae57600080fd5b506103c960048036038101906103c491906137b7565b612210565b6040516103d69190613cf7565b60405180910390f35b6103f960048036038101906103f49190613d19565b6122cc565b005b34801561040757600080fd5b50610422600480360381019061041d9190613d19565b612f04565b604051610436989796959493929190613d82565b60405180910390f35b600060016000858152602001908152602001600020604051806101a00160405290816000820154815260200160018201805461047a90613e4b565b80601f01602080910402602001604051908101604052809291908181526020018280546104a690613e4b565b80156104f35780601f106104c8576101008083540402835291602001916104f3565b820191906000526020600020905b8154815290600101906020018083116104d657829003601f168201915b5050505050815260200160028201805461050c90613e4b565b80601f016020809104026020016040519081016040528092919081815260200182805461053890613e4b565b80156105855780601f1061055a57610100808354040283529160200191610585565b820191906000526020600020905b81548152906001019060200180831161056857829003601f168201915b5050505050815260200160038201805461059e90613e4b565b80601f01602080910402602001604051908101604052809291908181526020018280546105ca90613e4b565b80156106175780601f106105ec57610100808354040283529160200191610617565b820191906000526020600020905b8154815290600101906020018083116105fa57829003601f168201915b5050505050815260200160048201600580602002604051908101604052809291906000905b828210156106df57838201805461065290613e4b565b80601f016020809104026020016040519081016040528092919081815260200182805461067e90613e4b565b80156106cb5780601f106106a0576101008083540402835291602001916106cb565b820191906000526020600020905b8154815290600101906020018083116106ae57829003601f168201915b50505050508152602001906001019061063c565b50505050815260200160098201600680602002604051908101604052809291908260068015610723576020028201915b81548152602001906001019080831161070f575b50505050508152602001600f8201600480602002604051908101604052809291906000905b828210156107eb57838201805461075e90613e4b565b80601f016020809104026020016040519081016040528092919081815260200182805461078a90613e4b565b80156107d75780601f106107ac576101008083540402835291602001916107d7565b820191906000526020600020905b8154815290600101906020018083116107ba57829003601f168201915b505050505081526020019060010190610748565b50505050815260200160138201600280602002604051908101604052809291906000905b828210156108b257838201805461082590613e4b565b80601f016020809104026020016040519081016040528092919081815260200182805461085190613e4b565b801561089e5780601f106108735761010080835404028352916020019161089e565b820191906000526020600020905b81548152906001019060200180831161088157829003601f168201915b50505050508152602001906001019061080f565b5050505081526020016015820160009054906101000a900473ffffffffffffffffffffffffffffffffffffffff1673ffffffffffffffffffffffffffffffffffffffff1673ffffffffffffffffffffffffffffffffffffffff16815260200160168201600580602002604051908101604052809291906000905b828210156109cf57838201805461094290613e4b565b80601f016020809104026020016040519081016040528092919081815260200182805461096e90613e4b565b80156109bb5780601f10610990576101008083540402835291602001916109bb565b820191906000526020600020905b81548152906001019060200180831161099e57829003601f168201915b50505050508152602001906001019061092c565b505050508152602001601b820180546109e790613e4b565b80601f0160208091040260200160405190810160405280929190818152602001828054610a1390613e4b565b8015610a605780601f10610a3557610100808354040283529160200191610a60565b820191906000526020600020905b815481529060010190602001808311610a4357829003601f168201915b50505050508152602001601c820160009054906101000a900473ffffffffffffffffffffffffffffffffffffffff1673ffffffffffffffffffffffffffffffffffffffff1673ffffffffffffffffffffffffffffffffffffffff168152602001601c820160149054906101000a900460ff1615151515815250509050828160e00181905250818161012001819052506040518060400160405280600d81526020017f4e6f742052657175657374656400000000000000000000000000000000000000815250816101400181905250600081610160019073ffffffffffffffffffffffffffffffffffffffff16908173ffffffffffffffffffffffffffffffffffffffff16815250506000816101800190151590811515815250508060016000868152602001908152602001600020600082015181600001556020820151816001019080519060200190610bb49291906131b9565b506040820151816002019080519060200190610bd19291906131b9565b506060820151816003019080519060200190610bee9291906131b9565b50608082015181600401906005610c0692919061323f565b5060a082015181600901906006610c1e929190613292565b5060c082015181600f01906004610c369291906132d2565b5060e082015181601301906002610c4e929190613325565b506101008201518160150160006101000a81548173ffffffffffffffffffffffffffffffffffffffff021916908373ffffffffffffffffffffffffffffffffffffffff16021790555061012082015181601601906005610caf92919061323f565b5061014082015181601b019080519060200190610ccd9291906131b9565b5061016082015181601c0160006101000a81548173ffffffffffffffffffffffffffffffffffffffff021916908373ffffffffffffffffffffffffffffffffffffffff16021790555061018082015181601c0160146101000a81548160ff02191690831515021790555090505050505050565b60036020528160005260406000208181548110610d5c57600080fd5b906000526020600020016000915091509054906101000a900473ffffffffffffffffffffffffffffffffffffffff1681565b60005481565b600080815480929190610da690613eac565b9190505550604051806101a0016040528060005481526020018981526020018881526020018781526020018681526020018581526020018481526020018381526020013373ffffffffffffffffffffffffffffffffffffffff1681526020018281526020016040518060400160405280600d81526020017f4e6f7420526571756573746564000000000000000000000000000000000000008152508152602001600073ffffffffffffffffffffffffffffffffffffffff168152602001600015158152506001600080548152602001908152602001600020600082015181600001556020820151816001019080519060200190610ea49291906131b9565b506040820151816002019080519060200190610ec19291906131b9565b506060820151816003019080519060200190610ede9291906131b9565b50608082015181600401906005610ef692919061323f565b5060a082015181600901906006610f0e929190613292565b5060c082015181600f01906004610f269291906132d2565b5060e082015181601301906002610f3e929190613325565b506101008201518160150160006101000a81548173ffffffffffffffffffffffffffffffffffffffff021916908373ffffffffffffffffffffffffffffffffffffffff16021790555061012082015181601601906005610f9f92919061323f565b5061014082015181601b019080519060200190610fbd9291906131b9565b5061016082015181601c0160006101000a81548173ffffffffffffffffffffffffffffffffffffffff021916908373ffffffffffffffffffffffffffffffffffffffff16021790555061018082015181601c0160146101000a81548160ff0219169083151502179055509050506003600080548152602001908152602001600020339080600181540180825580915050600190039060005260206000200160009091909190916101000a81548173ffffffffffffffffffffffffffffffffffffffff021916908373ffffffffffffffffffffffffffffffffffffffff160217905550600260003373ffffffffffffffffffffffffffffffffffffffff1673ffffffffffffffffffffffffffffffffffffffff16815260200190815260200160002060005490806001815401808255809150506001900390600052602060002001600090919091909150557f7e37fc009f9320b66dd39c896947e138289a77ea9cf041b3b306ecbfc44bb78960005489898989898989338a60008060405161114f9c9b9a99989796959493929190614230565b60405180910390a15050505050505050565b60006001600084815260200190815260200160002060150160009054906101000a900473ffffffffffffffffffffffffffffffffffffffff1690507f1608bfe470033b271e4cb07c4c0de6ce8929f7c19602087c1b08cbeb569976c882805190602001201415611289578073ffffffffffffffffffffffffffffffffffffffff163373ffffffffffffffffffffffffffffffffffffffff161461120357600080fd5b8160016000858152602001908152602001600020601b01908051906020019061122d9291906131b9565b50600060016000858152602001908152602001600020601c0160006101000a81548173ffffffffffffffffffffffffffffffffffffffff021916908373ffffffffffffffffffffffffffffffffffffffff1602179055506114f9565b7f2b8f376eabf9329b9af0990331d47490a3b5de88557330d92477d080c45d934082805190602001201415611376578073ffffffffffffffffffffffffffffffffffffffff163373ffffffffffffffffffffffffffffffffffffffff1614156112f157600080fd5b8160016000858152602001908152602001600020601b01908051906020019061131b9291906131b9565b503360016000858152602001908152602001600020601c0160006101000a81548173ffffffffffffffffffffffffffffffffffffffff021916908373ffffffffffffffffffffffffffffffffffffffff1602179055506114f8565b7f71fb55c0cb0fd74783d23c772b2f895cb0c286e8e0fab4f642555d8b1ffce2528280519060200120141561140d578073ffffffffffffffffffffffffffffffffffffffff163373ffffffffffffffffffffffffffffffffffffffff16146113dd57600080fd5b8160016000858152602001908152602001600020601b0190805190602001906114079291906131b9565b506114f7565b7ff368d33078fbef144a41ddeaf9da70677bc5df7b112e9648455a68de7431a058828051906020012014156114f6578073ffffffffffffffffffffffffffffffffffffffff163373ffffffffffffffffffffffffffffffffffffffff16141561147557600080fd5b8160016000858152602001908152602001600020601b01908051906020019061149f9291906131b9565b503360016000858152602001908152602001600020601c0160006101000a81548173ffffffffffffffffffffffffffffffffffffffff021916908373ffffffffffffffffffffffffffffffffffffffff1602179055505b5b5b5b505050565b6000600260008373ffffffffffffffffffffffffffffffffffffffff1673ffffffffffffffffffffffffffffffffffffffff168152602001908152602001600020805490509050919050565b6002602052816000526040600020818154811061156657600080fd5b90600052602060002001600091509150505481565b60606001600084815260200190815260200160002060130182600281106115a5576115a4614331565b5b0180546115b190613e4b565b80601f01602080910402602001604051908101604052809291908181526020018280546115dd90613e4b565b801561162a5780601f106115ff5761010080835404028352916020019161162a565b820191906000526020600020905b81548152906001019060200180831161160d57829003601f168201915b5050505050905092915050565b600060016000848152602001908152602001600020600901826006811061166157611660614331565b5b0154905092915050565b600060036000838152602001908152602001600020805490509050919050565b60606001600084815260200190815260200160002060160182600581106116b5576116b4614331565b5b0180546116c190613e4b565b80601f01602080910402602001604051908101604052809291908181526020018280546116ed90613e4b565b801561173a5780601f1061170f5761010080835404028352916020019161173a565b820191906000526020600020905b81548152906001019060200180831161171d57829003601f168201915b5050505050905092915050565b606060016000848152602001908152602001600020600401826005811061177157611770614331565b5b01805461177d90613e4b565b80601f01602080910402602001604051908101604052809291908181526020018280546117a990613e4b565b80156117f65780601f106117cb576101008083540402835291602001916117f6565b820191906000526020600020905b8154815290600101906020018083116117d957829003601f168201915b5050505050905092915050565b816001600082815260200190815260200160002060150160009054906101000a900473ffffffffffffffffffffffffffffffffffffffff1673ffffffffffffffffffffffffffffffffffffffff163373ffffffffffffffffffffffffffffffffffffffff16141561187357600080fd5b600060016000858152602001908152602001600020604051806101a0016040529081600082015481526020016001820180546118ae90613e4b565b80601f01602080910402602001604051908101604052809291908181526020018280546118da90613e4b565b80156119275780601f106118fc57610100808354040283529160200191611927565b820191906000526020600020905b81548152906001019060200180831161190a57829003601f168201915b5050505050815260200160028201805461194090613e4b565b80601f016020809104026020016040519081016040528092919081815260200182805461196c90613e4b565b80156119b95780601f1061198e576101008083540402835291602001916119b9565b820191906000526020600020905b81548152906001019060200180831161199c57829003601f168201915b505050505081526020016003820180546119d290613e4b565b80601f01602080910402602001604051908101604052809291908181526020018280546119fe90613e4b565b8015611a4b5780601f10611a2057610100808354040283529160200191611a4b565b820191906000526020600020905b815481529060010190602001808311611a2e57829003601f168201915b5050505050815260200160048201600580602002604051908101604052809291906000905b82821015611b13578382018054611a8690613e4b565b80601f0160208091040260200160405190810160405280929190818152602001828054611ab290613e4b565b8015611aff5780601f10611ad457610100808354040283529160200191611aff565b820191906000526020600020905b815481529060010190602001808311611ae257829003601f168201915b505050505081526020019060010190611a70565b50505050815260200160098201600680602002604051908101604052809291908260068015611b57576020028201915b815481526020019060010190808311611b43575b50505050508152602001600f8201600480602002604051908101604052809291906000905b82821015611c1f578382018054611b9290613e4b565b80601f0160208091040260200160405190810160405280929190818152602001828054611bbe90613e4b565b8015611c0b5780601f10611be057610100808354040283529160200191611c0b565b820191906000526020600020905b815481529060010190602001808311611bee57829003601f168201915b505050505081526020019060010190611b7c565b50505050815260200160138201600280602002604051908101604052809291906000905b82821015611ce6578382018054611c5990613e4b565b80601f0160208091040260200160405190810160405280929190818152602001828054611c8590613e4b565b8015611cd25780601f10611ca757610100808354040283529160200191611cd2565b820191906000526020600020905b815481529060010190602001808311611cb557829003601f168201915b505050505081526020019060010190611c43565b5050505081526020016015820160009054906101000a900473ffffffffffffffffffffffffffffffffffffffff1673ffffffffffffffffffffffffffffffffffffffff1673ffffffffffffffffffffffffffffffffffffffff16815260200160168201600580602002604051908101604052809291906000905b82821015611e03578382018054611d7690613e4b565b80601f0160208091040260200160405190810160405280929190818152602001828054611da290613e4b565b8015611def5780601f10611dc457610100808354040283529160200191611def565b820191906000526020600020905b815481529060010190602001808311611dd257829003601f168201915b505050505081526020019060010190611d60565b505050508152602001601b82018054611e1b90613e4b565b80601f0160208091040260200160405190810160405280929190818152602001828054611e4790613e4b565b8015611e945780601f10611e6957610100808354040283529160200191611e94565b820191906000526020600020905b815481529060010190602001808311611e7757829003601f168201915b50505050508152602001601c820160009054906101000a900473ffffffffffffffffffffffffffffffffffffffff1673ffffffffffffffffffffffffffffffffffffffff1673ffffffffffffffffffffffffffffffffffffffff168152602001601c820160149054906101000a900460ff161515151581525050905060001515816101800151151514611f2657600080fd5b6000816101000151905083826101200151600460058110611f4a57611f49614331565b5b60200201819052508073ffffffffffffffffffffffffffffffffffffffff166108fc349081150290604051600060405180830381858888f19350505050158015611f98573d6000803e3d6000fd5b506040518060400160405280600781526020017f4f6e20486f6c640000000000000000000000000000000000000000000000000081525082610140018190525081600160008781526020019081526020016000206000820151816000015560208201518160010190805190602001906120129291906131b9565b50604082015181600201908051906020019061202f9291906131b9565b50606082015181600301908051906020019061204c9291906131b9565b5060808201518160040190600561206492919061323f565b5060a08201518160090190600661207c929190613292565b5060c082015181600f019060046120949291906132d2565b5060e0820151816013019060026120ac929190613325565b506101008201518160150160006101000a81548173ffffffffffffffffffffffffffffffffffffffff021916908373ffffffffffffffffffffffffffffffffffffffff1602179055506101208201518160160190600561210d92919061323f565b5061014082015181601b01908051906020019061212b9291906131b9565b5061016082015181601c0160006101000a81548173ffffffffffffffffffffffffffffffffffffffff021916908373ffffffffffffffffffffffffffffffffffffffff16021790555061018082015181601c0160146101000a81548160ff0219169083151502179055509050507f5e68ad1680e7ae46f1229cc2354ba8c0aa6ccf1eab5af5c90d0082745cebb16460005483602001518460400151856060015186608001518760a001518860c001518960e00151898b61012001513360016040516122019c9b9a999897969594939291906143ac565b60405180910390a15050505050565b606060016000848152602001908152602001600020600f01826004811061223a57612239614331565b5b01805461224690613e4b565b80601f016020809104026020016040519081016040528092919081815260200182805461227290613e4b565b80156122bf5780601f10612294576101008083540402835291602001916122bf565b820191906000526020600020905b8154815290600101906020018083116122a257829003601f168201915b5050505050905092915050565b806001600082815260200190815260200160002060150160009054906101000a900473ffffffffffffffffffffffffffffffffffffffff1673ffffffffffffffffffffffffffffffffffffffff163373ffffffffffffffffffffffffffffffffffffffff16141561233c57600080fd5b600060016000848152602001908152602001600020604051806101a00160405290816000820154815260200160018201805461237790613e4b565b80601f01602080910402602001604051908101604052809291908181526020018280546123a390613e4b565b80156123f05780601f106123c5576101008083540402835291602001916123f0565b820191906000526020600020905b8154815290600101906020018083116123d357829003601f168201915b5050505050815260200160028201805461240990613e4b565b80601f016020809104026020016040519081016040528092919081815260200182805461243590613e4b565b80156124825780601f1061245757610100808354040283529160200191612482565b820191906000526020600020905b81548152906001019060200180831161246557829003601f168201915b5050505050815260200160038201805461249b90613e4b565b80601f01602080910402602001604051908101604052809291908181526020018280546124c790613e4b565b80156125145780601f106124e957610100808354040283529160200191612514565b820191906000526020600020905b8154815290600101906020018083116124f757829003601f168201915b5050505050815260200160048201600580602002604051908101604052809291906000905b828210156125dc57838201805461254f90613e4b565b80601f016020809104026020016040519081016040528092919081815260200182805461257b90613e4b565b80156125c85780601f1061259d576101008083540402835291602001916125c8565b820191906000526020600020905b8154815290600101906020018083116125ab57829003601f168201915b505050505081526020019060010190612539565b50505050815260200160098201600680602002604051908101604052809291908260068015612620576020028201915b81548152602001906001019080831161260c575b50505050508152602001600f8201600480602002604051908101604052809291906000905b828210156126e857838201805461265b90613e4b565b80601f016020809104026020016040519081016040528092919081815260200182805461268790613e4b565b80156126d45780601f106126a9576101008083540402835291602001916126d4565b820191906000526020600020905b8154815290600101906020018083116126b757829003601f168201915b505050505081526020019060010190612645565b50505050815260200160138201600280602002604051908101604052809291906000905b828210156127af57838201805461272290613e4b565b80601f016020809104026020016040519081016040528092919081815260200182805461274e90613e4b565b801561279b5780601f106127705761010080835404028352916020019161279b565b820191906000526020600020905b81548152906001019060200180831161277e57829003601f168201915b50505050508152602001906001019061270c565b5050505081526020016015820160009054906101000a900473ffffffffffffffffffffffffffffffffffffffff1673ffffffffffffffffffffffffffffffffffffffff1673ffffffffffffffffffffffffffffffffffffffff16815260200160168201600580602002604051908101604052809291906000905b828210156128cc57838201805461283f90613e4b565b80601f016020809104026020016040519081016040528092919081815260200182805461286b90613e4b565b80156128b85780601f1061288d576101008083540402835291602001916128b8565b820191906000526020600020905b81548152906001019060200180831161289b57829003601f168201915b505050505081526020019060010190612829565b505050508152602001601b820180546128e490613e4b565b80601f016020809104026020016040519081016040528092919081815260200182805461291090613e4b565b801561295d5780601f106129325761010080835404028352916020019161295d565b820191906000526020600020905b81548152906001019060200180831161294057829003601f168201915b50505050508152602001601c820160009054906101000a900473ffffffffffffffffffffffffffffffffffffffff1673ffffffffffffffffffffffffffffffffffffffff1673ffffffffffffffffffffffffffffffffffffffff168152602001601c820160149054906101000a900460ff1615151515815250509050600015158161018001511515146129ef57600080fd5b600081610100015190508073ffffffffffffffffffffffffffffffffffffffff166108fc349081150290604051600060405180830381858888f19350505050158015612a3f573d6000803e3d6000fd5b50600260003373ffffffffffffffffffffffffffffffffffffffff1673ffffffffffffffffffffffffffffffffffffffff16815260200190815260200160002084908060018154018082558091505060019003906000526020600020016000909190919091505560005b600260008373ffffffffffffffffffffffffffffffffffffffff1673ffffffffffffffffffffffffffffffffffffffff16815260200190815260200160002080549050811015612bcd5784600260008473ffffffffffffffffffffffffffffffffffffffff1673ffffffffffffffffffffffffffffffffffffffff1681526020019081526020016000208281548110612b4557612b44614331565b5b90600052602060002001541415612bba57600260008373ffffffffffffffffffffffffffffffffffffffff1673ffffffffffffffffffffffffffffffffffffffff1681526020019081526020016000208181548110612ba757612ba6614331565b5b9060005260206000200160009055612bcd565b8080612bc590613eac565b915050612aa9565b5060036000858152602001908152602001600020339080600181540180825580915050600190039060005260206000200160009091909190916101000a81548173ffffffffffffffffffffffffffffffffffffffff021916908373ffffffffffffffffffffffffffffffffffffffff1602179055503382610100019073ffffffffffffffffffffffffffffffffffffffff16908173ffffffffffffffffffffffffffffffffffffffff16815250506001826101800190151590811515815250506040518060400160405280600681526020017f4e6f2052657100000000000000000000000000000000000000000000000000008152508261014001819052508160016000868152602001908152602001600020600082015181600001556020820151816001019080519060200190612d069291906131b9565b506040820151816002019080519060200190612d239291906131b9565b506060820151816003019080519060200190612d409291906131b9565b50608082015181600401906005612d5892919061323f565b5060a082015181600901906006612d70929190613292565b5060c082015181600f01906004612d889291906132d2565b5060e082015181601301906002612da0929190613325565b506101008201518160150160006101000a81548173ffffffffffffffffffffffffffffffffffffffff021916908373ffffffffffffffffffffffffffffffffffffffff16021790555061012082015181601601906005612e0192919061323f565b5061014082015181601b019080519060200190612e1f9291906131b9565b5061016082015181601c0160006101000a81548173ffffffffffffffffffffffffffffffffffffffff021916908373ffffffffffffffffffffffffffffffffffffffff16021790555061018082015181601c0160146101000a81548160ff0219169083151502179055509050507f5e68ad1680e7ae46f1229cc2354ba8c0aa6ccf1eab5af5c90d0082745cebb16460005483602001518460400151856060015186608001518760a001518860c001518960e00151338b610120015160006001604051612ef69c9b9a999897969594939291906143ac565b60405180910390a150505050565b6001602052806000526040600020600091509050806000015490806001018054612f2d90613e4b565b80601f0160208091040260200160405190810160405280929190818152602001828054612f5990613e4b565b8015612fa65780601f10612f7b57610100808354040283529160200191612fa6565b820191906000526020600020905b815481529060010190602001808311612f8957829003601f168201915b505050505090806002018054612fbb90613e4b565b80601f0160208091040260200160405190810160405280929190818152602001828054612fe790613e4b565b80156130345780601f1061300957610100808354040283529160200191613034565b820191906000526020600020905b81548152906001019060200180831161301757829003601f168201915b50505050509080600301805461304990613e4b565b80601f016020809104026020016040519081016040528092919081815260200182805461307590613e4b565b80156130c25780601f10613097576101008083540402835291602001916130c2565b820191906000526020600020905b8154815290600101906020018083116130a557829003601f168201915b5050505050908060150160009054906101000a900473ffffffffffffffffffffffffffffffffffffffff169080601b0180546130fd90613e4b565b80601f016020809104026020016040519081016040528092919081815260200182805461312990613e4b565b80156131765780601f1061314b57610100808354040283529160200191613176565b820191906000526020600020905b81548152906001019060200180831161315957829003601f168201915b50505050509080601c0160009054906101000a900473ffffffffffffffffffffffffffffffffffffffff169080601c0160149054906101000a900460ff16905088565b8280546131c590613e4b565b90600052602060002090601f0160209004810192826131e7576000855561322e565b82601f1061320057805160ff191683800117855561322e565b8280016001018555821561322e579182015b8281111561322d578251825591602001919060010190613212565b5b50905061323b9190613378565b5090565b8260058101928215613281579160200282015b828111156132805782518290805190602001906132709291906131b9565b5091602001919060010190613252565b5b50905061328e9190613395565b5090565b82600681019282156132c1579160200282015b828111156132c05782518255916020019190600101906132a5565b5b5090506132ce9190613378565b5090565b8260048101928215613314579160200282015b828111156133135782518290805190602001906133039291906131b9565b50916020019190600101906132e5565b5b5090506133219190613395565b5090565b8260028101928215613367579160200282015b828111156133665782518290805190602001906133569291906131b9565b5091602001919060010190613338565b5b5090506133749190613395565b5090565b5b80821115613391576000816000905550600101613379565b5090565b5b808211156133b557600081816133ac91906133b9565b50600101613396565b5090565b5080546133c590613e4b565b6000825580601f106133d757506133f6565b601f0160209004906000526020600020908101906133f59190613378565b5b50565b6000604051905090565b600080fd5b600080fd5b6000819050919050565b6134208161340d565b811461342b57600080fd5b50565b60008135905061343d81613417565b92915050565b600080fd5b6000601f19601f8301169050919050565b7f4e487b7100000000000000000000000000000000000000000000000000000000600052604160045260246000fd5b61349182613448565b810181811067ffffffffffffffff821117156134b0576134af613459565b5b80604052505050565b60006134c36133f9565b90506134cf8282613488565b919050565b600067ffffffffffffffff8211156134ef576134ee613459565b5b602082029050919050565b600080fd5b600080fd5b600067ffffffffffffffff82111561351f5761351e613459565b5b61352882613448565b9050602081019050919050565b82818337600083830152505050565b600061355761355284613504565b6134b9565b905082815260208101848484011115613573576135726134ff565b5b61357e848285613535565b509392505050565b600082601f83011261359b5761359a613443565b5b81356135ab848260208601613544565b91505092915050565b60006135c76135c2846134d4565b6134b9565b905080602084028301858111156135e1576135e06134fa565b5b835b8181101561362857803567ffffffffffffffff81111561360657613605613443565b5b8086016136138982613586565b855260208501945050506020810190506135e3565b5050509392505050565b600082601f83011261364757613646613443565b5b60026136548482856135b4565b91505092915050565b600067ffffffffffffffff82111561367857613677613459565b5b602082029050919050565b60006136966136918461365d565b6134b9565b905080602084028301858111156136b0576136af6134fa565b5b835b818110156136f757803567ffffffffffffffff8111156136d5576136d4613443565b5b8086016136e28982613586565b855260208501945050506020810190506136b2565b5050509392505050565b600082601f83011261371657613715613443565b5b6005613723848285613683565b91505092915050565b60008060006060848603121561374557613744613403565b5b60006137538682870161342e565b935050602084013567ffffffffffffffff81111561377457613773613408565b5b61378086828701613632565b925050604084013567ffffffffffffffff8111156137a1576137a0613408565b5b6137ad86828701613701565b9150509250925092565b600080604083850312156137ce576137cd613403565b5b60006137dc8582860161342e565b92505060206137ed8582860161342e565b9150509250929050565b600073ffffffffffffffffffffffffffffffffffffffff82169050919050565b6000613822826137f7565b9050919050565b61383281613817565b82525050565b600060208201905061384d6000830184613829565b92915050565b61385c8161340d565b82525050565b60006020820190506138776000830184613853565b92915050565b600067ffffffffffffffff82111561389857613897613459565b5b602082029050919050565b60006138b66138b18461387d565b6134b9565b905080602084028301858111156138d0576138cf6134fa565b5b835b818110156138f957806138e5888261342e565b8452602084019350506020810190506138d2565b5050509392505050565b600082601f83011261391857613917613443565b5b60066139258482856138a3565b91505092915050565b600067ffffffffffffffff82111561394957613948613459565b5b602082029050919050565b60006139676139628461392e565b6134b9565b90508060208402830185811115613981576139806134fa565b5b835b818110156139c857803567ffffffffffffffff8111156139a6576139a5613443565b5b8086016139b38982613586565b85526020850194505050602081019050613983565b5050509392505050565b600082601f8301126139e7576139e6613443565b5b60046139f4848285613954565b91505092915050565b6000806000806000806000806101a0898b031215613a1e57613a1d613403565b5b600089013567ffffffffffffffff811115613a3c57613a3b613408565b5b613a488b828c01613586565b985050602089013567ffffffffffffffff811115613a6957613a68613408565b5b613a758b828c01613586565b975050604089013567ffffffffffffffff811115613a9657613a95613408565b5b613aa28b828c01613586565b965050606089013567ffffffffffffffff811115613ac357613ac2613408565b5b613acf8b828c01613701565b9550506080613ae08b828c01613903565b94505061014089013567ffffffffffffffff811115613b0257613b01613408565b5b613b0e8b828c016139d2565b93505061016089013567ffffffffffffffff811115613b3057613b2f613408565b5b613b3c8b828c01613632565b92505061018089013567ffffffffffffffff811115613b5e57613b5d613408565b5b613b6a8b828c01613701565b9150509295985092959890939650565b60008060408385031215613b9157613b90613403565b5b6000613b9f8582860161342e565b925050602083013567ffffffffffffffff811115613bc057613bbf613408565b5b613bcc85828601613586565b9150509250929050565b613bdf81613817565b8114613bea57600080fd5b50565b600081359050613bfc81613bd6565b92915050565b600060208284031215613c1857613c17613403565b5b6000613c2684828501613bed565b91505092915050565b60008060408385031215613c4657613c45613403565b5b6000613c5485828601613bed565b9250506020613c658582860161342e565b9150509250929050565b600081519050919050565b600082825260208201905092915050565b60005b83811015613ca9578082015181840152602081019050613c8e565b83811115613cb8576000848401525b50505050565b6000613cc982613c6f565b613cd38185613c7a565b9350613ce3818560208601613c8b565b613cec81613448565b840191505092915050565b60006020820190508181036000830152613d118184613cbe565b905092915050565b600060208284031215613d2f57613d2e613403565b5b6000613d3d8482850161342e565b91505092915050565b6000613d51826137f7565b9050919050565b613d6181613d46565b82525050565b60008115159050919050565b613d7c81613d67565b82525050565b600061010082019050613d98600083018b613853565b8181036020830152613daa818a613cbe565b90508181036040830152613dbe8189613cbe565b90508181036060830152613dd28188613cbe565b9050613de16080830187613d58565b81810360a0830152613df38186613cbe565b9050613e0260c0830185613829565b613e0f60e0830184613d73565b9998505050505050505050565b7f4e487b7100000000000000000000000000000000000000000000000000000000600052602260045260246000fd5b60006002820490506001821680613e6357607f821691505b60208210811415613e7757613e76613e1c565b5b50919050565b7f4e487b7100000000000000000000000000000000000000000000000000000000600052601160045260246000fd5b6000613eb78261340d565b91507fffffffffffffffffffffffffffffffffffffffffffffffffffffffffffffffff821415613eea57613ee9613e7d565b5b600182019050919050565b600060059050919050565b600081905092915050565b6000819050919050565b600082825260208201905092915050565b6000613f3182613c6f565b613f3b8185613f15565b9350613f4b818560208601613c8b565b613f5481613448565b840191505092915050565b6000613f6b8383613f26565b905092915050565b6000602082019050919050565b6000613f8b82613ef5565b613f958185613f00565b935083602082028501613fa785613f0b565b8060005b85811015613fe35784840389528151613fc48582613f5f565b9450613fcf83613f73565b925060208a01995050600181019050613fab565b50829750879550505050505092915050565b600060069050919050565b600081905092915050565b6000819050919050565b61401e8161340d565b82525050565b60006140308383614015565b60208301905092915050565b6000602082019050919050565b61405281613ff5565b61405c8184614000565b92506140678261400b565b8060005b8381101561409857815161407f8782614024565b965061408a8361403c565b92505060018101905061406b565b505050505050565b600060049050919050565b600081905092915050565b6000819050919050565b6000602082019050919050565b60006140d8826140a0565b6140e281856140ab565b9350836020820285016140f4856140b6565b8060005b8581101561413057848403895281516141118582613f5f565b945061411c836140c0565b925060208a019950506001810190506140f8565b50829750879550505050505092915050565b600060029050919050565b600081905092915050565b6000819050919050565b6000602082019050919050565b600061417a82614142565b614184818561414d565b93508360208202850161419685614158565b8060005b858110156141d257848403895281516141b38582613f5f565b94506141be83614162565b925060208a0199505060018101905061419a565b50829750879550505050505092915050565b7f4e6f742052657175657374656400000000000000000000000000000000000000600082015250565b600061421a600d83613c7a565b9150614225826141e4565b602082019050919050565b600061024082019050614246600083018f613853565b8181036020830152614258818e613cbe565b9050818103604083015261426c818d613cbe565b90508181036060830152614280818c613cbe565b90508181036080830152614294818b613f80565b90506142a360a083018a614049565b8181036101608301526142b681896140cd565b90508181036101808301526142cb818861416f565b90506142db6101a0830187613d58565b8181036101c08301526142ee8186613f80565b90508181036101e08301526143028161420d565b9050614312610200830185613829565b614320610220830184613d73565b9d9c50505050505050505050505050565b7f4e487b7100000000000000000000000000000000000000000000000000000000600052603260045260246000fd5b7f4e6f205265710000000000000000000000000000000000000000000000000000600082015250565b6000614396600683613c7a565b91506143a182614360565b602082019050919050565b6000610240820190506143c2600083018f613853565b81810360208301526143d4818e613cbe565b905081810360408301526143e8818d613cbe565b905081810360608301526143fc818c613cbe565b90508181036080830152614410818b613f80565b905061441f60a083018a614049565b81810361016083015261443281896140cd565b9050818103610180830152614447818861416f565b90506144576101a0830187613d58565b8181036101c083015261446a8186613f80565b90508181036101e083015261447e81614389565b905061448e610200830185613829565b61449c610220830184613d73565b9d9c5050505050505050505050505056fea2646970667358221220e71b8eabf11eced7059c8a7aec0020a625c3a21f689f4ef511eb6fe320f5636264736f6c634300080b0033",
  "immutableReferences": {},
  "source": "pragma solidity >=0.4.21 <0.9.0;\r\n//SPDX-License-Identifier: UNLICENSED\r\n\r\ncontract EasyProp {\r\n    uint public propCount;\r\n    mapping(uint=>Property) public properties;\r\n    mapping(address => uint[]) public userProps;\r\n    mapping(uint => address[]) public owners;\r\n\r\n    struct Property {\r\n        uint id;\r\n        string propType;\r\n        string title;\r\n        string description;\r\n        string[5] locations;\r\n        uint[6] rooms;\r\n        string[4] photos;\r\n        string[2] sellerDetails;\r\n        address payable sellerAddress;\r\n        string[5] priceandTime;\r\n        string status;\r\n        address signedBy;\r\n        bool purchased;\r\n    }\r\n\r\n    event PropertyAdded(\r\n        uint id,\r\n        string propType,\r\n        string title,\r\n        string description,\r\n        string[5] locations,\r\n        uint[6] rooms,\r\n        string[4] photos,\r\n        string[2] sellerDetails,\r\n        address payable sellerAddress,\r\n        string[5] priceandTime,\r\n        string status,\r\n        address signedBy,\r\n        bool purchased\r\n    );\r\n\r\n    event PropertyHeld(\r\n        uint id,\r\n        string propType,\r\n        string title,\r\n        string description,\r\n        string[5] locations,\r\n        uint[6] rooms,\r\n        string[4] photos,\r\n        string[2] sellerDetails,\r\n        address payable sellerAddress,\r\n        string[5] priceandTime,\r\n        string status,\r\n        address signedBy,\r\n        bool purchased\r\n    );\r\n\r\n    event ReqSent(\r\n        uint id,\r\n        address reqBy\r\n    );\r\n\r\n    event ReqAcc(\r\n        uint id,\r\n        address accBy\r\n    );\r\n    event ReqRej(\r\n        uint id,\r\n        address rejBy\r\n    );\r\n    event Signed(\r\n        uint id,\r\n        address signedBy\r\n    );\r\n\r\n    constructor() {\r\n        propCount = 0;\r\n    }\r\n\r\n    modifier onlyOwner(uint _id) {\r\n        require(msg.sender == properties[_id].sellerAddress);\r\n        _;\r\n    }\r\n\r\n    modifier notOwner(uint _id) {\r\n        require(msg.sender != properties[_id].sellerAddress);\r\n        _;\r\n    }\r\n\r\n    function addProperty ( \r\n            string memory _propType,\r\n            string memory _title,\r\n            string memory _description,\r\n            string[5] memory _locations,\r\n            uint[6] memory _rooms,\r\n            string[4] memory _photos,\r\n            string[2] memory _sellerDetails,\r\n            string[5] memory _priceandTime\r\n        ) public {\r\n            //makesure the parameters are correct\r\n\r\n            //Increment house count\r\n            propCount++;\r\n\r\n            //Add to the mapping\r\n            properties[propCount] = Property(propCount, _propType, _title, _description, _locations, _rooms, _photos, _sellerDetails, payable(msg.sender), _priceandTime, \"Not Requested\", address(0x0), false);\r\n\r\n            //Add owner to owners\r\n            owners[propCount].push(msg.sender);\r\n\r\n            //Update user props\r\n            userProps[msg.sender].push(propCount);\r\n\r\n            //Trigger an event\r\n            emit PropertyAdded(propCount, _propType, _title, _description, _locations, _rooms, _photos, _sellerDetails, payable(msg.sender), _priceandTime, \"Not Requested\", address(0x0), false);\r\n            \r\n        }\r\n\r\n    function sellProperty(uint _id, string[2] memory _sellerDetails,string[5] memory _priceandTime) public {\r\n        Property memory _property = properties[_id];\r\n\r\n        //Change Details\r\n        _property.sellerDetails = _sellerDetails;\r\n        _property.priceandTime = _priceandTime;\r\n        _property.status = \"Not Requested\";\r\n        _property.signedBy = address(0x0);\r\n        _property.purchased = false;\r\n\r\n        //Update in properties\r\n        properties[_id] = _property;\r\n    } \r\n\r\n    //for displaying\r\n    function getLocations(uint _id, uint _index) public view returns(string memory) {\r\n        return properties[_id].locations[_index];\r\n    }\r\n\r\n    function getRooms(uint _id, uint _index) public view returns(uint) {\r\n        return properties[_id].rooms[_index];\r\n    }\r\n\r\n    function getPhotos(uint _id, uint _index) public view returns(string memory) {\r\n        return properties[_id].photos[_index];\r\n    }\r\n\r\n    function getSellerDetails(uint _id, uint _index) public view returns(string memory) {\r\n        return properties[_id].sellerDetails[_index];\r\n    }\r\n\r\n    function getPriceAndTime(uint _id, uint _index) public view returns(string memory) {\r\n        return properties[_id].priceandTime[_index];\r\n    }\r\n\r\n    function getUserPropsCount(address user) public view returns (uint){\r\n        return userProps[user].length;\r\n    }\r\n\r\n    function getOwnersCount(uint _id) public view returns (uint){\r\n        return owners[_id].length;\r\n    }\r\n\r\n\r\n    //Change Status\r\n    //=============\r\n    function changeStatus(uint _id, string memory _status) public {\r\n        address seller = address(properties[_id].sellerAddress);\r\n        if(keccak256(bytes(_status)) == keccak256(\"Not Requested\")){\r\n            require(msg.sender == seller);\r\n            properties[_id].status = _status;\r\n            properties[_id].signedBy = address(0x0);\r\n        } else if (keccak256(bytes(_status)) == keccak256(\"Requested\")){\r\n            require(msg.sender != seller);\r\n            properties[_id].status = _status;\r\n            properties[_id].signedBy = msg.sender;\r\n        }else if (keccak256(bytes(_status)) == keccak256(\"Accepted\")){\r\n            require(msg.sender == seller);\r\n            properties[_id].status = _status;\r\n        } else if(keccak256(bytes(_status)) == keccak256(\"Signed\")){\r\n            require(msg.sender != seller);\r\n            properties[_id].status = _status;\r\n            properties[_id].signedBy = msg.sender;\r\n        }\r\n    }\r\n\r\n\r\n    //Hold Prop\r\n    //=========\r\n    function sendHoldingDeposit(uint _id, string memory dateHeld) public payable notOwner(_id) {\r\n        //Fetch the prop\r\n        Property memory _property = properties[_id];\r\n        //Makesure the prop is available\r\n        require(_property.purchased == false);\r\n        //Fetch the owner\r\n        address payable _seller = _property.sellerAddress;\r\n        //Set Date Held\r\n        _property.priceandTime[4] = dateHeld;\r\n        //Pay the seller\r\n        _seller.transfer(msg.value);\r\n        //Put on hold\r\n        _property.status = \"On Hold\";\r\n        //Add changes\r\n        properties[_id] = _property;\r\n        //Trigger an event\r\n        emit PropertyHeld(propCount, _property.propType, _property.title, _property.description, _property.locations, _property.rooms, _property.photos, _property.sellerDetails, _seller, _property.priceandTime, \"No Req\", msg.sender, true);\r\n    }\r\n\r\n    //Buy Prop\r\n    //========\r\n    function sendFullPrice(uint _id) public payable notOwner(_id) {\r\n        //Fetch the prop\r\n        Property memory _property = properties[_id];\r\n        //Make sure that the date is not expired\r\n        //Makesure the prop is available\r\n        require(_property.purchased == false);\r\n        //Fetch the owner\r\n        address payable _seller = _property.sellerAddress;\r\n        //Pay the seller\r\n        _seller.transfer(msg.value);\r\n        //Change User Props\r\n        userProps[msg.sender].push(_id);\r\n        for(uint i=0;i < userProps[address(_seller)].length; i++){\r\n            if(userProps[address(_seller)][i] == _id){\r\n                delete userProps[address(_seller)][i];\r\n                break;\r\n            }\r\n        }\r\n         //add to owners\r\n        owners[_id].push(msg.sender);\r\n        //Change Ownership\r\n        _property.sellerAddress=payable(msg.sender);\r\n        //Change Purchase status\r\n        _property.purchased = true;\r\n        _property.status = \"No Req\";\r\n        //Add Changes\r\n        properties[_id]=_property;\r\n        //Trigger an event\r\n        emit PropertyHeld(propCount, _property.propType, _property.title, _property.description, _property.locations, _property.rooms, _property.photos, _property.sellerDetails, payable(msg.sender), _property.priceandTime, \"No Req\", address(0x0), true);\r\n    }\r\n\r\n \r\n}",
  "sourcePath": "C:\\Users\\sande\\OneDrive\\Desktop\\trojanHex\\TrojanHex\\src\\contracts\\EasyProp.sol",
  "compiler": {
    "name": "solc",
    "version": "0.8.11+commit.d7f03943.Emscripten.clang"
  },
  "schemaVersion": "3.4.6",
  "updatedAt": "2022-06-28T11:03:33.560Z",
  "networkType": "ethereum",
  "devdoc": {
    "kind": "dev",
    "methods": {},
    "version": 1
  },
  "userdoc": {
    "kind": "user",
    "methods": {},
    "version": 1
  }
}