{
  "contractName": "Marketplace",
  "abi": [
    {
      "inputs": [],
      "stateMutability": "nonpayable",
      "type": "constructor"
    },
    {
      "anonymous": false,
      "inputs": [
        {
          "indexed": false,
          "internalType": "uint256",
          "name": "id",
          "type": "uint256"
        },
        {
          "indexed": false,
          "internalType": "string",
          "name": "name",
          "type": "string"
        },
        {
          "indexed": false,
          "internalType": "uint256",
          "name": "price",
          "type": "uint256"
        },
        {
          "indexed": false,
          "internalType": "string",
          "name": "image",
          "type": "string"
        },
        {
          "indexed": false,
          "internalType": "address payable",
          "name": "owner",
          "type": "address"
        },
        {
          "indexed": false,
          "internalType": "bool",
          "name": "purchased",
          "type": "bool"
        }
      ],
      "name": "ProductCreated",
      "type": "event"
    },
    {
      "anonymous": false,
      "inputs": [
        {
          "indexed": false,
          "internalType": "uint256",
          "name": "id",
          "type": "uint256"
        },
        {
          "indexed": false,
          "internalType": "string",
          "name": "name",
          "type": "string"
        },
        {
          "indexed": false,
          "internalType": "uint256",
          "name": "price",
          "type": "uint256"
        },
        {
          "indexed": false,
          "internalType": "string",
          "name": "image",
          "type": "string"
        },
        {
          "indexed": false,
          "internalType": "address payable",
          "name": "owner",
          "type": "address"
        },
        {
          "indexed": false,
          "internalType": "bool",
          "name": "purchased",
          "type": "bool"
        }
      ],
      "name": "ProductPurchased",
      "type": "event"
    },
    {
      "inputs": [],
      "name": "name",
      "outputs": [
        {
          "internalType": "string",
          "name": "",
          "type": "string"
        }
      ],
      "stateMutability": "view",
      "type": "function",
      "constant": true
    },
    {
      "inputs": [],
      "name": "productCount",
      "outputs": [
        {
          "internalType": "uint256",
          "name": "",
          "type": "uint256"
        }
      ],
      "stateMutability": "view",
      "type": "function",
      "constant": true
    },
    {
      "inputs": [
        {
          "internalType": "uint256",
          "name": "",
          "type": "uint256"
        }
      ],
      "name": "products",
      "outputs": [
        {
          "internalType": "uint256",
          "name": "id",
          "type": "uint256"
        },
        {
          "internalType": "string",
          "name": "name",
          "type": "string"
        },
        {
          "internalType": "uint256",
          "name": "price",
          "type": "uint256"
        },
        {
          "internalType": "string",
          "name": "image",
          "type": "string"
        },
        {
          "internalType": "address payable",
          "name": "owner",
          "type": "address"
        },
        {
          "internalType": "bool",
          "name": "purchased",
          "type": "bool"
        }
      ],
      "stateMutability": "view",
      "type": "function",
      "constant": true
    },
    {
      "inputs": [
        {
          "internalType": "string",
          "name": "_name",
          "type": "string"
        },
        {
          "internalType": "uint256",
          "name": "_price",
          "type": "uint256"
        },
        {
          "internalType": "string",
          "name": "_image",
          "type": "string"
        }
      ],
      "name": "createProduct",
      "outputs": [],
      "stateMutability": "nonpayable",
      "type": "function"
    },
    {
      "inputs": [
        {
          "internalType": "uint256",
          "name": "_id",
          "type": "uint256"
        }
      ],
      "name": "purchaseProduct",
      "outputs": [],
      "stateMutability": "payable",
      "type": "function",
      "payable": true
    }
  ],
  "bytecode": "0x608060405260006001553480156200001657600080fd5b506040518060400160405280600a81526020017f54726f6a616e206865780000000000000000000000000000000000000000000081525060009080519060200190620000649291906200006b565b5062000180565b82805462000079906200014a565b90600052602060002090601f0160209004810192826200009d5760008555620000e9565b82601f10620000b857805160ff1916838001178555620000e9565b82800160010185558215620000e9579182015b82811115620000e8578251825591602001919060010190620000cb565b5b509050620000f89190620000fc565b5090565b5b8082111562000117576000816000905550600101620000fd565b5090565b7f4e487b7100000000000000000000000000000000000000000000000000000000600052602260045260246000fd5b600060028204905060018216806200016357607f821691505b602082108114156200017a57620001796200011b565b5b50919050565b610e6480620001906000396000f3fe60806040526004361061004a5760003560e01c806306fdde031461004f57806338e76a031461007a5780637acc0b2014610096578063e0f6ef87146100d8578063ff38ec0f14610103575b600080fd5b34801561005b57600080fd5b5061006461012c565b6040516100719190610a07565b60405180910390f35b610094600480360381019061008f9190610a73565b6101ba565b005b3480156100a257600080fd5b506100bd60048036038101906100b89190610a73565b6105bb565b6040516100cf96959493929190610b0b565b60405180910390f35b3480156100e457600080fd5b506100ed610734565b6040516100fa9190610b7a565b60405180910390f35b34801561010f57600080fd5b5061012a60048036038101906101259190610cca565b61073a565b005b6000805461013990610d84565b80601f016020809104026020016040519081016040528092919081815260200182805461016590610d84565b80156101b25780601f10610187576101008083540402835291602001916101b2565b820191906000526020600020905b81548152906001019060200180831161019557829003601f168201915b505050505081565b6000600260008381526020019081526020016000206040518060c0016040529081600082015481526020016001820180546101f490610d84565b80601f016020809104026020016040519081016040528092919081815260200182805461022090610d84565b801561026d5780601f106102425761010080835404028352916020019161026d565b820191906000526020600020905b81548152906001019060200180831161025057829003601f168201915b505050505081526020016002820154815260200160038201805461029090610d84565b80601f01602080910402602001604051908101604052809291908181526020018280546102bc90610d84565b80156103095780601f106102de57610100808354040283529160200191610309565b820191906000526020600020905b8154815290600101906020018083116102ec57829003601f168201915b505050505081526020016004820160009054906101000a900473ffffffffffffffffffffffffffffffffffffffff1673ffffffffffffffffffffffffffffffffffffffff1673ffffffffffffffffffffffffffffffffffffffff1681526020016004820160149054906101000a900460ff1615151515815250509050600081608001519050600082600001511180156103a85750600154826000015111155b6103b157600080fd5b81604001513410156103c257600080fd5b8160a00151156103d157600080fd5b3373ffffffffffffffffffffffffffffffffffffffff168173ffffffffffffffffffffffffffffffffffffffff16141561040a57600080fd5b33826080019073ffffffffffffffffffffffffffffffffffffffff16908173ffffffffffffffffffffffffffffffffffffffff168152505060018260a0019015159081151581525050816002600085815260200190815260200160002060008201518160000155602082015181600101908051906020019061048d9291906108cb565b506040820151816002015560608201518160030190805190602001906104b49291906108cb565b5060808201518160040160006101000a81548173ffffffffffffffffffffffffffffffffffffffff021916908373ffffffffffffffffffffffffffffffffffffffff16021790555060a08201518160040160146101000a81548160ff0219169083151502179055509050508073ffffffffffffffffffffffffffffffffffffffff166108fc349081150290604051600060405180830381858888f19350505050158015610565573d6000803e3d6000fd5b507f51d5efda86089031ebc8356fe0f58f1d1bc46538d67bca7b95950e9053f886ed6001548360200151846040015185606001513360016040516105ae96959493929190610b0b565b60405180910390a1505050565b60026020528060005260406000206000915090508060000154908060010180546105e490610d84565b80601f016020809104026020016040519081016040528092919081815260200182805461061090610d84565b801561065d5780601f106106325761010080835404028352916020019161065d565b820191906000526020600020905b81548152906001019060200180831161064057829003601f168201915b50505050509080600201549080600301805461067890610d84565b80601f01602080910402602001604051908101604052809291908181526020018280546106a490610d84565b80156106f15780601f106106c6576101008083540402835291602001916106f1565b820191906000526020600020905b8154815290600101906020018083116106d457829003601f168201915b5050505050908060040160009054906101000a900473ffffffffffffffffffffffffffffffffffffffff16908060040160149054906101000a900460ff16905086565b60015481565b600083511161074857600080fd5b6000821161075557600080fd5b6001600081548092919061076890610de5565b91905055506040518060c0016040528060015481526020018481526020018381526020018281526020013373ffffffffffffffffffffffffffffffffffffffff168152602001600015158152506002600060015481526020019081526020016000206000820151816000015560208201518160010190805190602001906107f09291906108cb565b506040820151816002015560608201518160030190805190602001906108179291906108cb565b5060808201518160040160006101000a81548173ffffffffffffffffffffffffffffffffffffffff021916908373ffffffffffffffffffffffffffffffffffffffff16021790555060a08201518160040160146101000a81548160ff0219169083151502179055509050507f61ecd7a78d5a27ec4cdfb40c88af4af98e472ef75dce549e20a169b2fe9f6a2f6001548484843360006040516108be96959493929190610b0b565b60405180910390a1505050565b8280546108d790610d84565b90600052602060002090601f0160209004810192826108f95760008555610940565b82601f1061091257805160ff1916838001178555610940565b82800160010185558215610940579182015b8281111561093f578251825591602001919060010190610924565b5b50905061094d9190610951565b5090565b5b8082111561096a576000816000905550600101610952565b5090565b600081519050919050565b600082825260208201905092915050565b60005b838110156109a857808201518184015260208101905061098d565b838111156109b7576000848401525b50505050565b6000601f19601f8301169050919050565b60006109d98261096e565b6109e38185610979565b93506109f381856020860161098a565b6109fc816109bd565b840191505092915050565b60006020820190508181036000830152610a2181846109ce565b905092915050565b6000604051905090565b600080fd5b600080fd5b6000819050919050565b610a5081610a3d565b8114610a5b57600080fd5b50565b600081359050610a6d81610a47565b92915050565b600060208284031215610a8957610a88610a33565b5b6000610a9784828501610a5e565b91505092915050565b610aa981610a3d565b82525050565b600073ffffffffffffffffffffffffffffffffffffffff82169050919050565b6000610ada82610aaf565b9050919050565b610aea81610acf565b82525050565b60008115159050919050565b610b0581610af0565b82525050565b600060c082019050610b206000830189610aa0565b8181036020830152610b3281886109ce565b9050610b416040830187610aa0565b8181036060830152610b5381866109ce565b9050610b626080830185610ae1565b610b6f60a0830184610afc565b979650505050505050565b6000602082019050610b8f6000830184610aa0565b92915050565b600080fd5b600080fd5b7f4e487b7100000000000000000000000000000000000000000000000000000000600052604160045260246000fd5b610bd7826109bd565b810181811067ffffffffffffffff82111715610bf657610bf5610b9f565b5b80604052505050565b6000610c09610a29565b9050610c158282610bce565b919050565b600067ffffffffffffffff821115610c3557610c34610b9f565b5b610c3e826109bd565b9050602081019050919050565b82818337600083830152505050565b6000610c6d610c6884610c1a565b610bff565b905082815260208101848484011115610c8957610c88610b9a565b5b610c94848285610c4b565b509392505050565b600082601f830112610cb157610cb0610b95565b5b8135610cc1848260208601610c5a565b91505092915050565b600080600060608486031215610ce357610ce2610a33565b5b600084013567ffffffffffffffff811115610d0157610d00610a38565b5b610d0d86828701610c9c565b9350506020610d1e86828701610a5e565b925050604084013567ffffffffffffffff811115610d3f57610d3e610a38565b5b610d4b86828701610c9c565b9150509250925092565b7f4e487b7100000000000000000000000000000000000000000000000000000000600052602260045260246000fd5b60006002820490506001821680610d9c57607f821691505b60208210811415610db057610daf610d55565b5b50919050565b7f4e487b7100000000000000000000000000000000000000000000000000000000600052601160045260246000fd5b6000610df082610a3d565b91507fffffffffffffffffffffffffffffffffffffffffffffffffffffffffffffffff821415610e2357610e22610db6565b5b60018201905091905056fea26469706673582212202f1e61595a417e4cff04475123becc2ed429f3a730de8261f4763ac6f3c3824664736f6c634300080b0033",
  "immutableReferences": {},
  "source": "pragma solidity >=0.4.21 <0.9.0;\r\n//SPDX-License-Identifier: UNLICENSED\r\ncontract Marketplace {\r\n    string public name;\r\n    uint public productCount = 0;\r\n    mapping(uint => Product) public products;\r\n\r\n    struct Product {\r\n        uint id;\r\n        string name;\r\n        uint price;\r\n        string image;\r\n        address payable owner;\r\n        bool purchased;\r\n    }\r\n\r\n    event ProductCreated(\r\n        uint id,\r\n        string name,\r\n        uint price,\r\n        string image,\r\n        address payable owner,\r\n        bool purchased\r\n    );\r\n\r\n    event ProductPurchased(\r\n        uint id,\r\n        string name,\r\n        uint price,\r\n        string image,\r\n        address payable owner,\r\n        bool purchased\r\n    );\r\n\r\n    constructor(){\r\n        name = \"Trojan hex\";\r\n    }\r\n\r\n    function createProduct(string memory _name, uint _price, string memory _image) public {\r\n        // Require a valid name\r\n        require(bytes(_name).length > 0);\r\n        // Require a valid price\r\n        require(_price > 0);\r\n        // Increment product count\r\n        productCount ++;\r\n        // Create the product\r\n        products[productCount] = Product(productCount, _name, _price, _image, payable(msg.sender), false);\r\n        // Trigger an event\r\n        emit ProductCreated(productCount, _name, _price, _image, payable(msg.sender), false);\r\n    }\r\n\r\n    function purchaseProduct(uint _id) public payable {\r\n        // Fetch the product\r\n        Product memory _product = products[_id];\r\n        // Fetch the owner\r\n        address payable _seller = _product.owner;\r\n        // Make sure the product has a valid id\r\n        require(_product.id > 0 && _product.id <= productCount);\r\n        // Require that there is enough Ether in the transaction\r\n        require(msg.value >= _product.price);\r\n        // Require that the product has not been purchased already\r\n        require(!_product.purchased);\r\n        // Require that the buyer is not the seller\r\n        require(_seller != msg.sender);\r\n        // Transfer ownership to the buyer\r\n        _product.owner = payable(msg.sender);\r\n        // Mark as purchased\r\n        _product.purchased = true;\r\n        // Update the product\r\n        products[_id] = _product;\r\n        // Pay the seller by sending them Ether\r\n        payable(address(_seller)).transfer(msg.value);\r\n        // Trigger an event\r\n        emit ProductPurchased(productCount, _product.name, _product.price, _product.image, payable(msg.sender), true);\r\n    }\r\n}",
  "sourcePath": "C:\\Users\\sande\\OneDrive\\Desktop\\trojanHex\\trojanHex\\src\\contracts\\Marketplace.sol",
  "compiler": {
    "name": "solc",
    "version": "0.8.11+commit.d7f03943.Emscripten.clang"
  },
  "schemaVersion": "3.4.6",
  "updatedAt": "2022-07-02T13:01:28.792Z",
  "networkType": "ethereum",
  "devdoc": {
    "kind": "dev",
    "methods": {},
    "version": 1
  },
  "userdoc": {
    "kind": "user",
    "methods": {},
    "version": 1
  }
}